:100000000C94AB010C94F2010C94F2010C94F201EB
:100010000C94F2010C94F2010C94F2010C94F20194
:100020000C94F2010C94F2010C94860A0C943D0F8E
:100030000C94FA1F0C94F2010C94F2010C94F2014E
:100040000C94F2010C94F2010C94F2010C94F20164
:100050000C94F2010C945D0B0C94F2010C94F201DF
:100060000C94F2010C94F2010C94F2010C94F20144
:100070000C94F2010C94F2010C94F2010C94F20134
:100080000C94F2010C94F2010C94F2010C94F20124
:100090000C94F2010C94F2010C94F2010C94F20114
:1000A0000C94F2010C94F2010C94F2010501090286
:1000B000A10185020901A1000509190129081500FE
:1000C0002501950875018102050109300931158165
:1000D000257F95027508810609381581257F9501D0
:1000E00075088106050C0A38021581257F95017572
:1000F000088106C0C005010980A101850319012AF4
:10010000B700150126B700950175108100C0050CD8
:100110000901A101850419012AA002150126A002E6
:10012000950175108100C005010906A1018505052D
:100130000719E029E71500250195087501810205D9
:1001400007190029EF1500250195F07501810205B9
:10015000081901290595057501910295017503910D
:1001600001C00660FF0961A1010962150026FF00B8
:100170009520750881020963150026FF00952075FA
:10018000089102C005010906A101050719E029E748
:1001900015002501950875018102950175088101F9
:1001A0000507190029FF150026FF0095067508812F
:1001B000000508190129059505750191029501753C
:1001C000039101C0000000000000000000000000DA
:1001D000000000000000000000000000000000001F
:1001E00000000000000000000000000000AF000060
:1001F00000000000000000000000000000000000FF
:1002000000000000000000000000000000000000EE
:1002100000007E0F00D4FFFFFFC700000078000041
:100220000000000000002A2B280000000000000051
:1002300000000000000000000029000000002C1E4B
:100240003420212224342627252E362D3738271E08
:100250001F202122232425263333362E37381F042E
:1002600005060708090A0B0C0D0E0F1011121314C6
:1002700015161718191A1B1C1D2F3130232D350484
:1002800005060708090A0B0C0D0E0F1011121314A6
:1002900015161718191A1B1C1D2F3130354C00DA92
:1002A0000281FFD9F1DB20A4A62EAF00A0C000A1DF
:1002B000C800AED580A81FD300408D14200000AE2A
:1002C00009025B00030100A0FA0904000001030118
:1002D00001000921110100012240000705810308E6
:1002E000000A0904010002030000000921110100B5
:1002F00001222200070582032000010705030320D5
:10030000000109040200010300000009211101009D
:100310000122B6000705840320000A120110010023
:10032000000008EDBE0200010001020001100342BE
:1003300000650064006F0050006100640000001060
:10034000034200650064006F004400650076000011
:1003500000040309040011241FBECFEFDAE0DEBF62
:10036000CDBF04B603FE27C08091790490917A0432
:10037000A0917B04B0917C048730904BA740B04B98
:10038000D1F41092790410927A0410927B041092A6
:100390007C0414BE84B7877F84BF0FB6F894A895F9
:1003A00080916000886180936000109260000FBEB1
:1003B000E0E0F8E3099511E0A0E0B1E0E4E7F3E460
:1003C00002C005900D92A437B107D9F724E0A4E745
:1003D000B1E001C01D92A937B207E1F70E94451AAA
:1003E0000C9481210C940000E8EDF0E080818E7F78
:1003F00080831092E2001092DA001092E100A0EEE9
:10040000B0E08C9181608C9380818F77808319BC60
:10041000A7EDB0E08C918E7F8C9380818F7E80835E
:100420001092430408952091E4003091E50095E690
:10043000A9012091EC00822F817020FF06C08091DD
:10044000E80080FF06C080E008952091E80022FDCA
:100450001AC080916804882389F0853089F08091E2
:10046000EB0085FD0FC02091E4003091E5004217BC
:100470005307F9F29150E1F684E0089582E008957F
:1004800083E0089581E00895EF92FF920F931F9308
:10049000CF937C018B010E941302C82F811117C0DA
:1004A0008091E80085FD0BC08091E8008E778093F5
:1004B000E8000E941302882399F3C82F08C0F701AF
:1004C00081917F018093F1000150110949F78C2F30
:1004D000CF911F910F91FF90EF90089580916A0442
:1004E00087FF13C08091E80082FF06C08091E8007A
:1004F0008B778093E80004C0809168048111F2CF6B
:100500000895809168048823D9F38091E80080FFE2
:10051000F8CF8091E8008E77ECCF982F9093E90088
:10052000242F762F50E0891731F07091EC00209144
:10053000ED005091F00021FD07C09F5F973071F7EB
:100540008093E90081E008953091EB003E7F309385
:10055000EB003091ED003D7F3093ED003091EB00EA
:1005600031603093EB007093EC002093ED005093DA
:10057000F0002091EE0027FDE0CF80E00895CF92BB
:10058000DF92EF92FF920F931F93CF93DF93C8ED0B
:10059000D0E088818F7E8883E7EDF0E08081816004
:1005A000808384E082BF81E08093430488818E7FD2
:1005B000888302EE10E0F80110821092DA0081EEDA
:1005C000C82ED12CF601108288818F77888388818C
:1005D0008068888388818F7D888319BC1092680425
:1005E00010926904109267041092660490EEE92E4E
:1005F000F12CF70180818B7F8083888181608883E3
:1006000042E060E080E00E948D02F60180818E7FF2
:100610008083F8018081816080838081886080830D
:10062000F70180818E7F8083888180618883DF915C
:10063000CF911F910F91FF90EF90DF90CF90089591
:10064000FC01809170049091710486179707A0F0C7
:100650006115710529F49091E8009E779093E80068
:1006600090E06115710551F4911108C08091E80086
:1006700082FF34C080E00895BC01F2CF809168040D
:100680008823C1F18530C1F18091E80083FD30C03D
:100690008091E80082FDEACF8091E80080FFE1CF01
:1006A0008091F3002091F200382F6115710519F047
:1006B0002830310558F091E02830310509F090E0FC
:1006C0002091E8002E772093E800CBCF8191809392
:1006D000F100615071092F5F3F4FE7CF80916804AF
:1006E000882341F0853041F08091E80083FFBECF40
:1006F00081E0089582E0089583E0089580E0089500
:1007000080914504089587E797E7909301088093C7
:10071000000888E19AE00FB6F894A89580936000ED
:100720000FBE90936000FFCF9C014FB7F89480916B
:10073000EF019091F001A091F101B091F2014FBF52
:10074000821B930B08952FB7F8946091EF0170917D
:10075000F0018091F1019091F2012FBF08958091F5
:10076000EA0181111092EA0108958091E9019091C6
:10077000E801892B9091E701892B80937601909174
:10078000EA019923A1F0892B8093760180911101D0
:10079000882341F18091F30187FF24C08EE1E8E7CF
:1007A000F1E090E0815000F591110E94AF03E091DB
:1007B000FA01F091FB013097E1F08091110188235B
:1007C00059F08091F30187FF07C0809176018093F3
:1007D000770185E0809376010280F381E02D86E742
:1007E00091E0099486E0DBCF21912223D9F29F5F2B
:1007F000D9CF0895909111019923D1F09091F301EF
:1008000097FF16C0E82FE695E695E695EE31E0F401
:10081000F0E0EA58FE4F282F277081E090E001C0F9
:10082000880F2A95EAF7809592818923828308951B
:10083000E8E7F1E09191891303C0DF0111971C9261
:1008400091E0EE37F907B1F70895909111019923DE
:10085000C1F09091F30197FF14C0E82FE695E6955B
:10086000E695EE31F8F4F0E0EA58FE4F877021E0AB
:1008700030E001C0220F8A95EAF78281822B8283C1
:100880000895A8E7B1E0EFEF90E02D91821751F0C5
:10089000EF3F19F4211101C0E92F9F5F9630A9F7AE
:1008A000EF3F09F408950E2E000CFF0BEA58FE4F9F
:1008B000E6CF990F990F890F982F97708695869597
:1008C000869525E0829FF0011124E952FE4F50E009
:1008D00040E080E0219130E0092E02C03695279556
:1008E0000A94E2F721703327042E01C0220F0A94E4
:1008F000EAF7822B4F5F5F4F4530510559F7089556
:10090000990F990F890F982F977041E001C0440FFC
:100910009A95EAF786958695869595E0899FF001E8
:100920001124E952FE4F30E020E070E05191DF01E8
:100930001197CB01022E02C0969587950A94E2F793
:10094000817081958527842385278C932F5F3F4F66
:100950002530310559F708958091D6019091A50170
:10096000981301C008958F5F8770FACF882341F0F4
:1009700080959091E90189238093E9010C94B50356
:100980000895882339F09091E901982B9093E9011B
:100990000C94B503089520919B0130919C01281778
:1009A000390771F090939C0180939B01E091FA01CB
:1009B000F091FB01309721F00084F185E02D09943E
:1009C00008952091990130919A012817390771F003
:1009D00090939A0180939901E091FA01F091FB01C3
:1009E000309721F00680F781E02D09940895E09179
:1009F000FA01F091FB01309721F00190F081E02D98
:100A0000099480E0089540913304803F59F4809127
:100A1000340487FF0DC01092340441110BC01092B2
:100A20002E0408C0813F81F48091340418169CF391
:100A3000442381F08091350490913604892B09F08C
:100A40005AC010922B040895823F49F447FFF0CF1B
:100A500010923304809134048111ECCFE0CF833FB6
:100A600019F41416ACF3E4CF90913504893F29F4BE
:100A70001916F4F610923504DBCF8A3F19F497FF6C
:100A8000D7CFF8CF909136048B3F29F497FFD0CF82
:100A900010923604CDCF8C3F19F41916CCF3C8CF81
:100AA0009CE0980F953090F4845F990B21E030E042
:100AB000B90102C0660F771F8A95E2F7CB018095D6
:100AC00090913204892380933204B2CF8D3F31F468
:100AD00080919E018E7F80939E01AACF8E3F21F44C
:100AE00080919E018D7FF7CF8F3F09F0A1CF80913C
:100AF0009E018B7FF0CF089580919E0180FD16C0EE
:100B000081FD16C082FD16C080912B048823A1F0C0
:100B1000883280F428E0829FC001112468E270E0EE
:100B20000E940A21862F672B39F0089582E00895EC
:100B300084E0089588E0089581E0089580919E0101
:100B400080FD14C081FD14C082FD16C080912E046A
:100B5000882381F0843180F422E3829FC001112434
:100B600064E170E00E940A21862F08958CE00895C8
:100B700089E1089585E0089582E30895803F31F486
:100B80000E949E058195809334040895813F19F455
:100B90000E949E05F8CF823F31F40E949E05819508
:100BA000809333040895833F19F40E949E05F8CF83
:100BB000893F29F40E947C058093350408958A3F7B
:100BC00021F40E947C058195F7CF8B3F31F40E9480
:100BD0007C0581958093360408958C3F19F40E941A
:100BE0007C05F8CF9CE0980F953070F4845F990BEA
:100BF00021E030E001C0220F8A95EAF780913204AB
:100C0000822B8093320408958D3F31F480919E01B0
:100C1000816080939E0108958E3F21F480919E0112
:100C20008260F7CF8F3FB9F780919E018460F1CF4A
:100C3000F894E82FE295EF70F0E031A1282F2F70A3
:100C400081E090E001C0880F2A95EAF7982F9095EF
:100C5000932391A392A1892B82A3789408959091D4
:100C6000F30192FF06C0282F28712830F9F4877FFE
:100C7000846093FF06C0282F28712831F1F4877E05
:100C800084612091F40120FF06C0382F387138307C
:100C9000D9F4877F816021FF06C0282F2871283171
:100CA000D1F4877E816194FD877E0895282F247179
:100CB0002430F9F68B7F8860DCCF282F2471243113
:100CC00001F78B7E8861DDCF382F3171313019F714
:100CD0008E7F8860E0CF282F2171213121F78E7E11
:100CE0008861E1CFCF92DF92EF92FF920F931F9333
:100CF000CF93DF936C017B0164E670E088E70E948C
:100D00002720EC0197FD12C010E000E0F601E00F93
:100D1000F11F849164E670E00E948320EC01892B2E
:100D200029F40F5F1F4F0E151F0581F70E94062142
:100D3000CE01DF91CF911F910F91FF90EF90DF9047
:100D4000CF900895CF93C091290480912A048823DD
:100D5000D1F00E94A303605A75418F4F9F4F60935B
:100D60002504709326048093270490932804C111CE
:100D700008C062E070E08CEE91E00E947206892B60
:100D800029F0C09129048C2FCF91089581E08093A0
:100D90002904F7CFCF9384E090E00E943F21C82F31
:100DA00082E290E00E943F21982F8C2FCF910895EE
:100DB0000F931F93CF93DF9328E0629FE0011124EC
:100DC00050E0440F551FC40FD51F38E2839FC00D5C
:100DD000D11D1124CE0187960E943F21082F10E0DB
:100DE000102F0027CE0188960E943F219801282BC2
:100DF000C901DF91CF911F910F910895462F843043
:100E000038F4753028F4643018F4672F0C94D80641
:100E100090E080E00895CF93DF930E94FE06EC01FE
:100E200082389105A9F1D8F58133910509F496C06E
:100E300048F58932910509F48AC08A9709F495C06A
:100E4000C11521E5D20708F0BCC0C11530E5D307B4
:100E500008F014C1C83ED10508F09CC0C03ED105C1
:100E600060F5C83AD10508F087C0C53AD10508F049
:100E7000FDC0C130D10509F12097F9F0C430D1058A
:100E8000E0F440C08533910509F45AC0C997C1F612
:100E90008091F301837089F0C0EED0E00EC0833EF4
:100EA000910599F170F4803E910501F1823E910522
:100EB00039F68091F30182FD21C0CE01DF91CF91FF
:100EC0000895863E910561F1873E910571F1843E5A
:100ED000910509F0B5CF8091F40181FFEECF8091AB
:100EE000F301C7EED0E084FD0DC0E7CF8091F301A0
:100EF00080FD12C19091F40190FFDFCFC3EED0E0EE
:100F000084FFDBCFD0E0C0E0D8CF8091F30182FD39
:100F100006C19091F40190FDBFCF84FFCECFF2CFF8
:100F20008091F30183FDDDCFC8CF8091F30183FD74
:100F3000F9C09091F40191FFF0CFC4EED0E0BDCFA5
:100F40008091F30185FFB9CFC9E2D0E0B6CF80919F
:100F5000F30185FFB2CFC5E3D0E0AFCF8091F301BD
:100F600086FFABCFCAE2D0E0A8CF8091F30186FF25
:100F7000A4CFC1E3D0E0A1CFCF3BD10518F6C85A2A
:100F8000D0E0CC0FDD1FCB5EDE4F0990D881C02DA5
:100F9000D46493CFC11540E2D40758F4C11581E061
:100FA000D80708F08ACFC03FD10508F4ABCFD06591
:100FB00084CFC11590E4D90708F4A4CFDF70D06ABC
:100FC0007CCFC11525E5D20700F5C11534E5D3075F
:100FD00008F08AC0C11543E5D40708F071C0C115F7
:100FE00082E5D80708F467C0CE018370992721E015
:100FF00030E002C0220F331F8A95E2F7C695C695EE
:1010000080E2C89FE001112452C0C11599E5D907BB
:10101000A8F4C11528E5D20708F06BC0C11536E564
:10102000D30708F06FCF8C2F0E942F06C82FD0E077
:10103000DC2FCC27CC27DF71D0623FCFC1154AE52A
:10104000D40708F45BC0CE0190568115904208F099
:1010500059CF8D2F8F710E942F0690E0982F8827EF
:1010600088279F719C012C2BE901E6CFC55AD0E05F
:10107000CE5EDE4FC881D0E0D0641FCFCE01E4E069
:1010800096958795EA95E1F783702C2F26952695FE
:10109000237040E2249F90011124382B8C2F837001
:1010A000C1E0D0E002C0CC0FDD1F8A95E2F7C22B71
:1010B000D32BDC6802CFDC2FCC27C16FD06AFDCEEA
:1010C000CE018370992721E030E002C0220F331F48
:1010D0008A95E2F7C695C69590E2C99FE001112472
:1010E000C22BD32BDA68E9CEDC2FCC27C46FD06AB1
:1010F000E4CEDC2FCC27C06FD06ADFCE8C2F8F7070
:101100000E942F0634E0D695C7953A95E1F7CF7047
:101110009C2FEC01D069D1CEC9E3D0E0CECEC2EE97
:10112000D0E0CBCEC6EED0E0C8CEBF92CF92DF9259
:10113000EF92FF920F931F93CF93DF938C01C09098
:101140007504D0907604E0907704F0907804809154
:10115000EB019091EC01A091ED01B091EE01C82A54
:10116000D92AEA2AFB2ACFE1D0E0BC2ED701C6015A
:101170000C2E04C0B695A795979587950A94D2F73B
:1011800080FD0EC0219788F7B12C8B2DDF91CF9178
:101190001F910F91FF90EF90DF90CF90BF90089537
:1011A000B8018C2F0E940B07019761F3EECFCF930C
:1011B000DF93EC010E949508BE01DF91CF910C9462
:1011C0000B070E94D708292F2F7092959F7092507D
:1011D0009E3078F4E92FF0E0ED57FE4D0C941E217F
:1011E000803F19F020F4883E20F481E00895843F88
:1011F000E1F380E00895883EC0F3813FD1F7F5CF59
:10120000822F86958695869508956F927F928F920C
:101210009F92AF92BF92CF92DF92EF92FF920F9385
:101220001F93CF93DF9384ECC82E81E0D82E07E57F
:1012300010E0E801A89736011CC0F5018590949054
:10124000692DC7010E944D21682DC70101960E949A
:101250004D2182E0A80EB11C82E0E80EF11CCE15F3
:10126000DF0559F788E0680E711C28960C171D07DA
:1012700031F07E0188E0E81AF1085301DECF085D05
:101280001F4F88E2C80ED11C073F110591F6DF9170
:10129000CF911F910F91FF90EF90DF90CF90BF9073
:1012A000AF909F908F907F906F900895CF93C09153
:1012B000F401C2FB992790F9981781F080FBC2F9DD
:1012C000C093F4016091F30184E090E00E944D210D
:1012D0006C2F82E290E0CF910C944D21CF91089534
:1012E000CF93DF93C7ECD0E060E0CE010E944D21A8
:1012F0002196C11584E0D807B9F7DF91CF91089501
:10130000CF93DF9300D00F92CDB7DEB790916804F2
:10131000943011F589837B836A839093E9008FEF82
:101320009091E800815095FD06C095ED9A95F1F7F2
:1013300000008111F5CF8091E80085FF0DC050E0DD
:1013400040E063E070E0CE0101960E94440280918B
:10135000E8008E778093E8000F900F900F90DF9158
:10136000CF910895BC0184E00C948009BC0183E016
:101370000C9480099C0184E08093E9009FEF8091A8
:10138000E800915085FD06C085ED8A95F1F70000D3
:101390009111F5CF8091E80085FF0CC050E040E04E
:1013A00066E070E0C9010E9444028091E8008E77F7
:1013B0008093E8000895CF93DF93EC0180911101B1
:1013C0008823B1F18091F30187FF32C060E284E0AD
:1013D0008093E9008FEF9091E800815095FD06C061
:1013E00095ED9A95F1F700008111F5CF8091E80015
:1013F00085FF1BC08091110170E050E040E0811139
:1014000004C050E040E068E070E0CE010E94440279
:101410008091E8008E778093E80080E2FE01A6E4E8
:10142000B4E001900D928A95E1F7DF91CF91089594
:1014300068E081E0CDCF6AEE7EEF90E080E00E9430
:101440006B2160E082E090E00E944D2160E083E04B
:1014500090E00E944D211092EB011092EC0110924D
:10146000ED011092EE0160E084E090E00E944D21D9
:1014700060E082E290E00E944D2160E085E090E033
:101480000E944D2160E086E090E00E944D216FEFC8
:1014900087E090E00E944D2140E050E0BA0188E0F2
:1014A00090E00E945F2160E08DE090E00E944D217D
:1014B00040E050E0BA0188E190E00E945F2160E0E6
:1014C00087E190E00E944D2140E050E0BA018CE1BC
:1014D00090E00E945F2170E060E080E290E00E9476
:1014E0006B2140E050E0BA0188E190E00E945F216A
:1014F00040E050E0BA018FE090E00E945F2140E0C0
:1015000050E0BA0183E190E00C945F211F920F92AA
:101510000FB60F9211242F933F934F935F936F93C6
:101520007F938F939F93AF93BF93EF93FF9380919C
:10153000E10082FF09C08091E20082FF05C0809136
:10154000E1008B7F8093E1008091DA0080FF24C06E
:101550008091D80080FF20C08091DA008E7F809338
:10156000DA008091D90080FF9BC080E189BD82E1D3
:1015700089BD09B400FEFDCF81E0809368048091AD
:101580004304811109C00E94F4010E94BF028091AE
:10159000E20084608093E2008091E10080FF17C048
:1015A0008091E20080FF13C08091E2008E7F8093E3
:1015B000E2008091E20080618093E2008091D80097
:1015C00080628093D80019BC85E080936804809184
:1015D000E10084FF29C08091E20084FF25C080E102
:1015E00089BD82E189BD89B5982F917080FFFBCFBD
:1015F0008091D8008F7D8093D8008091E1008F7E0C
:101600008093E1008091E2008F7E8093E2008091E0
:10161000E20081608093E20080916904882309F4EC
:1016200045C084E0809368048091E10083FF27C077
:101630008091E20083FF23C08091E100877F809347
:10164000E10082E080936804109269048091E100D7
:101650008E7F8093E1008091E2008E7F8093E20094
:101660008091E20080618093E20042E060E080E0EF
:101670000E948D028091F00088608093F000FF91BD
:10168000EF91BF91AF919F918F917F916F915F91FA
:101690004F913F912F910F900FBE0F901F90189573
:1016A00019BC109268041092430476CF8091E30035
:1016B00087FD93E090936804B7CF78941F921FB68C
:1016C0001F9211248F939F93AF93BF938091EF014B
:1016D0009091F001A091F101B091F2010196A11D4C
:1016E000B11D8093EF019093F001A093F101B093AD
:1016F000F201BF91AF919F918F911F901FBE1F90DC
:1017000018952FB7F8948091EF019091F001A09176
:10171000F101B091F2012FBF08950E94810B9C014D
:101720009091330480913404982B21F0309330044D
:1017300020932F049091350480913604982B21F04A
:1017400030932D0420932C04E091FA01F091FB01D9
:10175000309749F082E0809331040480F581E02DD8
:1017600081E394E00994089590E080E00E94E10410
:1017700090E080E00E94CB041092E8011092E70113
:101780000E94B50386E0E1E3F4E0DF011D928A9553
:10179000E9F710922E0410922B0410929E010C94E3
:1017A0008D0B609375047093760480937704909307
:1017B00078040C94B40B0F931F936091750470918F
:1017C000760480917704909178048B019C010670D7
:1017D000112722273327063011052105310529F469
:1017E00068601F910F910C94D10B677FFACF0F9314
:1017F0001F9341E050E060E070E004C0440F551FCB
:10180000661F771F8A95D2F7CB01BA016095709554
:10181000809590950091750410917604209177043D
:101820003091780460237123822393231F910F91B9
:101830000C94D10B9091E601809589238093E60169
:10184000282F277039F4282F082E000C330B9217FD
:10185000130621F49091F40192FF07C085958595B8
:1018600085950E94F70B1092E60108950F931F9340
:1018700041E050E060E070E004C0440F551F661F77
:10188000771F8A95D2F78091750490917604A09184
:101890007704B09178048A019B01082B192B2A2B1D
:1018A0003B2BC901B8011F910F910C94D10B609390
:1018B000EB017093EC018093ED019093EE010C9499
:1018C000B40B1092E90180911101E8E7F1E088235F
:1018D00059F08091F30187FF07C08EE1DF011D926F
:1018E0008A95E9F70C94B40B86E0F8CF1F93CF9359
:1018F000DF93CDB7DEB7AA970FB6F894DEBF0FBE61
:10190000CDBF8AE694E02091F100DC012D93CD015A
:10191000B4E082379B07B9F780916B04833009F4F8
:1019200071C0B8F4813009F448C0823009F4B2C003
:101930008091E80083FF3AC180916A0490916B0422
:101940009A3008F033C1E92FF0E0EF56FE4D0C94C9
:101950001E218A3009F48DC08B3009F470C08930A3
:1019600039F780916A04813219F780916E04909161
:101970006F04009711F00297D9F68091E800877FF5
:101980008093E8008091E80082FF37C09091F300D7
:101990008091F200029729F48091F1008B7F8130D1
:1019A00021F48091F100809345048091E8008B77C9
:1019B0008093E8000E946E02BBCF80916A04813A56
:1019C00009F0B6CF8091E800877F8093E80080918E
:1019D0006E0490916F04892B61F460E286E494E0D8
:1019E00070E00E9420038091E8008B778093E800EC
:1019F0009FCF60E090E080E0F3CF80916804811198
:101A0000C1CF96CF80916A04813A09F091CF80913D
:101A10006E0490916F04892B09F08ACF8091E800C1
:101A2000877F8093E8008091E80080FFFCCF809161
:101A300011018093F1008091E8008E77B9CF8091F9
:101A40006A04813209F074CF80916E0490916F0422
:101A5000892B09F06DCF8091E800877F8093E800A3
:101A60000E946E0280916C04809311010E94610CAF
:101A70005FCF80916A04813209F05ACF8091E800EB
:101A8000877F8093E8000E946E0280916D048093AE
:101A900044044ECF80916A04813A09F049CF809185
:101AA000E800877F8093E8008091E80080FFFCCF0A
:101AB00080914404BECF803899F0823809F076C016
:101AC00080916E048F70873008F070C08093E900B9
:101AD0008091EB0085FB882780F91092E90006C011
:101AE0008091660490916704911182609091E80062
:101AF000977F9093E8008093F1001092F10080911D
:101B0000E8008E77B5C1882309F4A2C1823009F0BC
:101B10004DC080916C048111A6C180916E048F70BC
:101B20002FEF280F263008F041C08093E900209164
:101B3000EB0020FF98C1933031F48091EB0080627C
:101B40008093EB0090C19091EB0090619093EB003B
:101B500021E030E001C0220F8A95EAF72093EA00E5
:101B60001092EA008091EB008860EACF81111EC0DC
:101B700010916C041F778091E3008078812B809313
:101B8000E3008091E800877F8093E8000E946E0266
:101B90008091E80080FFFCCF8091E3008068809313
:101BA000E30082E0111183E0809368048091E800F3
:101BB00083FF0AC08091E800877F8093E8008091CE
:101BC000EB0080628093EB00AA960FB6F894DEBF1C
:101BD0000FBECDBFDF91CF911F9108958058823005
:101BE00028F720916C0430916D042C3DE3E03E0712
:101BF000A1F583E08A838AE289834FB7F894DE01F6
:101C0000139620E03EE051E2E32FF0E050935700BE
:101C1000E49120FF03C0E295EF703F5FEF708E2FDD
:101C200090E0EA30C0F0C7968D939D932F5F2431EA
:101C300059F74FBF8091E800877F8093E8006AE200
:101C400070E0CE0101960E9420038091E8008B771E
:101C50008093E800ABCFC096E7CF80916E0490915F
:101C60006F04432F55274330510509F44AC078F5D6
:101C70004130510509F47AC08BE590E0E0ECF2E0E8
:101C80004230510509F092CF2091E800277F209340
:101C9000E80020917004309171048217930708F4D2
:101CA0009C0140E02115310509F065C0411163C078
:101CB0008091E80082FDC9CF80916804882329F2D1
:101CC000853019F28091E80083FFF2CFBECF413218
:101CD000510509F43CC04232510509F067CF833009
:101CE000910508F063CFFC01EE0FFF1FE959FE4F8D
:101CF0000190F081E02D8C599E4FDC018C9190E099
:101D00001AC0332721303105D1F02115310561F09A
:101D10002230310509F04ACFEDE2F3E0E4918E2F55
:101D200090E0EDE2F3E007C0E1E5F3E0E4918E2F0F
:101D300090E0E1E5F3E0009709F438CFA5CFEFE3B9
:101D4000F3E0E4918E2F90E0EFE3F3E0F4CF833003
:101D5000910508F02BCF880F991FFC01E359FE4F26
:101D60000190F081E02D89E090E08ECF82E190E05B
:101D7000EBE1F3E089CF80916804882309F465CF13
:101D8000853009F462CF8091E80083FD5ECF8091B9
:101D9000E80082FD8DCF8091E80080FF83CF909195
:101DA000F3008091F2002115310519F0883091057A
:101DB00050F041E0089709F040E08091E8008E770C
:101DC0008093E8006FCF44914093F1003196215009
:101DD00031090196E8CF803809F0E8CE8091E8001B
:101DE000877F8093E800809169048093F10087CE1B
:101DF0008111DCCE10916C04123008F0D7CE8091A6
:101E0000E800877F8093E800109369040E946E02C7
:101E1000112311F084E005C08091E30087FDFACF23
:101E200081E08093680442E061EC81E00E948D02D1
:101E300042E261EC84E00E948D0242E261EC82E0C9
:101E40000E948D0242E260EC83E00E948D02AECEE1
:101E500080916C04813009F0A9CE81E0933009F0C3
:101E600080E0809367041092E9008091E800877F0A
:101E70008093E8000E946E0299CE1F920F920FB6D7
:101E80000F9211242F933F934F935F936F937F9300
:101E90008F939F93AF93BF93CF93DF93EF93FF9372
:101EA000D091E900DF708091EC00C82FC17080FDF7
:101EB000C0E81092E9008091F000877F8093F000E5
:101EC00078940E94760C1092E9008091F00088606E
:101ED0008093F000CD2BCF70C093E900FF91EF917C
:101EE000DF91CF91BF91AF919F918F917F916F9132
:101EF0005F914F913F912F910F900FBE0F901F90C8
:101F00001895882309F459C0823871F40E94F704A7
:101F100081FF53C089E30E9425040E94B50389E331
:101F20000E94FA030C94B503833859F40E94F70415
:101F300080FF43C083E50E9425040E94B50383E52A
:101F4000EFCF843859F40E94F70482FF36C087E44B
:101F50000E9425040E94B50387E4E2CF9CEF980F0E
:101F6000913AF0F290E2980F983088F4877021E06F
:101F700030E0A90102C0440F551F8A95E2F7CA015B
:101F800080959091E90189238093E901CBCF9BE56E
:101F9000980F933020F490E080E00C94E10498E5F1
:101FA000980F973120F490E080E00C94CB04803FB0
:101FB00020F00E9403050C948D0B0895CF93C82F39
:101FC000882309F4AEC08238C1F40E94F70481FD71
:101FD000A8C089E30E9425040E94B5032FEF81EE7B
:101FE00094E0215080409040E1F700C0000089E378
:101FF0000E94FA03CF910C94B5038338A1F40E9498
:10200000F70480FD8EC083E50E9425040E94B5037D
:102010002FEF81EE94E0215080409040E1F700C026
:10202000000083E5E5CF8438A1F40E94F70482FD27
:1020300078C087E40E9425040E94B5032FEF81EE4B
:1020400094E0215080409040E1F700C0000087E418
:10205000CFCF8CEF8C0F813A88F5809111018823C6
:1020600001F18091F30187FF1CC0EC2FE695E69506
:10207000E695F0E0EA58FE4F828190E04C2F4770E1
:1020800021E030E002C0220F331F4A95E2F782239D
:102090009323892B79F08C2F0E94FA030E94B503B9
:1020A00009C0E8E7F1E08191C817A9F321E0EE3714
:1020B000F207C9F78C2F0E9425049CCF80E28C0F79
:1020C000883068F4C77021E030E001C0220FCA9563
:1020D000EAF78091E901822B8093E9018BCFEBE550
:1020E000EC0FE33040F4F0E0EE5EFE4F808190E0D4
:1020F000CF910C94E104E8E5EC0FE73150F4F0E007
:10210000EE0FFF1FEB5EFE4F80819181CF910C940B
:10211000CB04C03F30F08C2F0E94BE05CF910C94B1
:102120008D0BCF9108951F93CF93DF93182FCAE0A3
:10213000D0E0893311F4C0E5D0E0812F0E94DE0F9A
:102140008FE99FE00197F1F700C000002197C1F7E8
:10215000812FDF91CF911F910C94810F0F931F93CB
:10216000CF93DF93C62FD42F022FFC0182818823C7
:10217000A1F0609374040E94810B90937304809388
:102180007204C77081E001C0880FCA95EAF7DF9139
:10219000CF911F910F910C94C10480917404681326
:1021A00035C080917204909173040E949403883C1E
:1021B000910560F510E21D0FCD17B9F080E28C0F8C
:1021C000883040F4C77081E001C0880FCA95EAF7F3
:1021D0000E94B604183048F481E09D2F977001C02A
:1021E000880F9A95EAF70E94C104802F0E949310ED
:1021F000183098F4D77081E001C0880FDA95EAF7BB
:10220000DF91CF911F910F910C94B604C77081E0BC
:1022100001C0880FCA95EAF7F3CFDF91CF911F91E4
:102220000F9108953F924F925F926F927F928F929B
:102230009F92AF92BF92CF92DF92EF92FF920F9355
:102240001F93CF93DF9300D000D00F92CDB7DEB7AE
:102250008C01FC0183819481892B31F080819181F3
:1022600089238F3F09F07CC50F900F900F900F903E
:102270000F90DF91CF911F910F91FF90EF90DF9022
:10228000CF90BF90AF909F908F907F906F905F9016
:102290004F903F9008950E949508F82E682F8981ED
:1022A0009A810E94800469817A818F2D0E94FE06A6
:1022B0007C01F8018281882309F445C597012251E8
:1022C0003F452031310508F011C58FEF93E00E94A2
:1022D0003F21FEEEEF0E57EC852E912C882381F1E5
:1022E0008091E601877009F4BFCFF80182818823CD
:1022F00009F4BACF82E00F900F900F900F900F90DB
:10230000DF91CF911F910F91FF90EF90DF90CF90D1
:10231000BF90AF909F908F907F906F905F904F9005
:102320003F900C941A0C811424E09206C9F2C40167
:102330000E943F21811101C0EA943FEF831A930A62
:10234000E110F1CF1C821B82442443944AE0342ED6
:1023500074018FEFE81AF80AC4010E943F218983B3
:102360001A82882309F4BCCF9FEF980F933000F5B1
:102370008A83498292E0890E911CC7010E943F2105
:102380008B83882309F4ACCFFE0131967F01F701DE
:1023900020812223E9F2213009F049C09181828114
:1023A000913041F4F2E0EF0EF11C0E94931009C04D
:1023B0004701EACF923049F422E0E20EF11C0E947C
:1023C000DE0F3FEFE31AF30AE2CF933031F432E04D
:1023D000E30EF11C0E94810FF4CF943021F08FEFB7
:1023E000E81AF80AEECF92E0E90EF11C30E020E0A6
:1023F000B7016F5F7F4FF70141818053990B8A309E
:10240000910550F021503109E0F28FE99FE00197EA
:10241000F1F700C00000F6CF329EF001339EF00DC0
:1024200011249C012E0F3F1F842F7B01E1CFE22F4F
:10243000F0E0E25EFD4F5490822F8695869586955A
:1024400090E0FC01E25FFD4F64902770712C022E3A
:1024500002C0759467940A94E2F7E1E06E22772453
:10246000FC01E250FE4FA490B12C022E02C0B594A4
:10247000A7940A94E2F7F1E0AF22BB24FC01E251F9
:10248000FE4FC490D12C02C0D594C7942A95E2F790
:1024900021E0C222DD246114710419F081EE0E9452
:1024A000DE0FA114B10419F086EE0E94DE0F852D17
:1024B0000E949310AB2819F086EE0E94810F6728C6
:1024C00019F081EE0E94810FCD2809F47ACF8CE2B9
:1024D0006CCF81E00E94360C0E94DB0B01CF81E0C3
:1024E0000E94F70BF9CF82E0F5CF95EFE9169CE556
:1024F000F90609F469C008F463C027E245EE66EE08
:10250000F6EFEF16FCE5FF0609F419C4882309F479
:1025100038C41092740422E0E2162CE5F20608F4A6
:102520004CC136E1E3163CE5F30630F0C7018A5FA3
:102530009C45099708F041C10E94CA069093F40196
:102540008093F30180E1E8168CE5F80609F404C1F4
:1025500008F083C0E8E0EE16ECE5FE0609F4EEC0F4
:1025600008F04FC024E0E2162CE5F20609F4DEC0C4
:1025700090F582E0E8168CE5F80609F4D1C0809168
:10258000F301826093E0E9169CE5F90609F4CBC0FB
:102590006091F301F090F40184E090E00E944D21FD
:1025A0006F2D82E290E00E944D210E94610C98CE36
:1025B00027E245EE65EEC3C326E241EE60EEBFC3FF
:1025C00027E245EE64EEBBC326E241EE62EEB7C3FE
:1025D00028E241E0EFCF8091F3018061E6E0EE1662
:1025E000ECE5FE0609F49FC08091F3018860F7E0F6
:1025F000EF16FCE5FF0608F496C08091F3018062B7
:1026000092C08091F3018D7F2CE0E2162CE5F2065A
:1026100009F489C060F48AE0E8168CE5F80609F44C
:1026200097C008F48FC08091F3018E7F7CC08091A9
:10263000F301877FEEE0EE16ECE5FE0609F473C0C9
:102640008091F3018B7FFFE0EF16FCE5FF0608F4B5
:102650006AC08091F3018F7E66C02BEFE2162CE5F5
:10266000F20609F467C068F583E1E8168CE5F80620
:1026700009F47AC090F4E1E1EE16ECE5FE0609F407
:102680006FC0F2E1EF16FCE5FF0609F081CF0E9472
:10269000610C8091F3018F7746C025E1E2162CE5AD
:1026A000F20609F469C008F47DC08AEFE8168CE5EB
:1026B000F80609F06DCF8091F40181608093F401F8
:1026C00067CF9FEFE9169CE5F90609F451C0A0F425
:1026D0008091F4018D7FFDEFEF16FCE5FF0671F3AD
:1026E0008091F4018E7F2EEFE2162CE5F20630F396
:1026F0008091F4018360E2CF31E0E3163DE5F3061B
:1027000009F459C008F444C060E092E0E9169DE580
:10271000F90609F03DCF8EE090E00E944D2138CFC0
:102720008091F30181608093F30132CF8091F301B6
:102730008460F9CF8091F4018260C0CF8091F30171
:102740008064F1CF0E94610C8091F3018068EBCF2F
:102750008091F3018C60E7CF8091F3018F7DE3CF0F
:102760008091F3018F7BDFCF8091F301837FDBCFFB
:102770008091F4018C7FA2CF8091F30182FB992795
:1027800090F921E0922790FB82F990FB83F9CBCF5F
:102790008091F401982F909591708E7F892B90FBFA
:1027A00081F98CCF0E94610C9091F301892F97FBE6
:1027B00087F98058B8CF61E0AECFE6E1EE16ECE5E0
:1027C000FE0609F0EBC28091E9018A7A91E009F4F2
:1027D00090E090939D01811106C089E20E9425043A
:1027E0000E94B5037DCD85E3F9CF85E3D4C20E9475
:1027F000610CFFEF24E33CE0F15020403040E1F772
:1028000000C000000E94830381E0EEC280E0ECC2C1
:10281000C7010E945904D82EF8C22F2D2F70A22E66
:102820008F2D807F19F0A29490EFA922DD20C9F0AE
:10283000AA2069F080E28E0D883010F081100BC064
:102840008091E901A82AA092E9010E94B5038E2D8A
:102850000E94DE0F19C08091E801A82AA092E80129
:10286000F4CF8E2D0E94810FAA2071F0A09480E2F7
:102870008E0D883010F081103DC08091E901A822B2
:10288000A092E9010E94B503232D2850330B243078
:10289000310510F40E94F704CC2009F4E5CC8091B6
:1028A000E60180FDE1CCF80112828595859585953C
:1028B0000E94360CC8010E9412118091E601859594
:1028C000859585950F900F900F900F900F90DF9149
:1028D000CF911F910F91FF90EF90DF90CF90BF901D
:1028E000AF909F908F907F906F905F904F903F90B0
:1028F0000C94F70B8091E801A822A092E801C2CFC6
:102900003F2D3F70932E8F2D807F803219F092944F
:1029100080EF9822882071F081E0881681F1DD2017
:10292000D9F1AA2091F1F801858180FF90CF8F70B5
:1029300085832BC0DD20B1F09091EA01892D892B90
:10294000A11003C00E94C1049FCFE1E0AE12FACFF4
:102950002091F40122FD98CF981709F495CF809328
:10296000EA0192CFA11006C00E94AF03892D0E94F8
:10297000B6048ACFF1E0AF1609F486CFF5CFDD209B
:1029800031F025E02A1508F47FCF892DDBCF34E024
:102990003A1508F479CFEACFAA2041F3F9E38F1270
:1029A0009DC12FEF37EE83E0215030408040E1F7AA
:1029B00000C000008E2D0E94810F66CF8F2D86955E
:1029C0008695837061F0813009F05ECFC701937006
:1029D000D11002C090E080E00E94CB0455CFC70127
:1029E0009370D11002C090E080E00E94E1044CCFCF
:1029F0008E2DDD2029F00E94BE050E948D0B44CF54
:102A00000E940305FACF8F2D837009F066C0D110A4
:102A10003BCF8E2D829586958770880F880F6E2DFF
:102A20006F70462E512C712C612C082E04C0440C62
:102A3000551C661C771C0A94D2F740E050E0BA019E
:102A4000E4FE0FC04FE050E060E070E004C0440FCF
:102A5000551F661F771F8A95D2F740955095609550
:102A600070958F2D869586958370823019F1D8F4F4
:102A70008090EB019090EC01A090ED01B090EE0100
:102A8000813069F04429552966297729CB01BA019B
:102A9000682179218A219B210E94570CF5CE482874
:102AA00059286A287B28CB01BA016429752986290F
:102AB0009729F2CF44295529662977294090EB01BF
:102AC0005090EC016090ED017090EE01CB01BA01E5
:102AD0006425752586259725DFCF8695DD2011F0A5
:102AE0008F2D8170882309F4CFCE8E2D8295869507
:102AF0008770880F880F6E2D6F70462E512C712CA9
:102B0000612C082E04C0440C551C661C771C0A94CA
:102B1000D2F740E050E0BA01E4FE0FC04FE050E0D1
:102B200060E070E004C0440F551F661F771F8A9550
:102B3000D2F740955095609570958F2D8695869526
:102B40008370823019F1D8F48090750490907604E7
:102B5000A0907704B0907804813069F04429552919
:102B600066297729CB01BA01682179218A219B2125
:102B70000E94D10B89CE482859286A287B28CB018E
:102B8000BA016429752986299729F2CF4429552944
:102B900066297729409075045090760460907704F8
:102BA00070907804CB01BA01642575258625972598
:102BB000DFCFFF2DFF70FF2EDD2029F08F2F0E9429
:102BC000360C8E2DBFCE8E2D0E94B6048F2D0E9406
:102BD000F70B5ACE8E2D22EF821609F456C0281517
:102BE00078F030EF831641F191EF891609F445C072
:102BF000DD2009F46EC0A1102ACE8F2D8F7142C046
:102C0000E3EF8E1609F446C0F4EF8F12F1CFDD200A
:102C100009F454C08F2D8F71F82E0E94360C8091CC
:102C2000F40182FD07C0E8E0FE9EC001112483602C
:102C30008093E6018F2D26C0DD20D1F024E02A15F7
:102C400008F422CE2F2D2F7161E070E080E090E03B
:102C500004C0660F771F881F991F2A95D2F74090EE
:102C600075045090760460907704709078049CCF3F
:102C700035E03A1508F408CEE5CF8F2D8F71DD20B1
:102C800009F4A5CF0E94360CFFCD8F2D8F71DD206A
:102C9000C9F39DCF60E070E0CB01DD2009F468CF7F
:102CA0002F2D2F7161E070E080E090E004C0660F8E
:102CB000771F881F991F2A95D2F75ACF81E00E946B
:102CC0001A0CF1E0FA1508F0DFCD82E00E941A0C30
:102CD000DBCDAA2041F0893309F463CEEFE3FCE9B0
:102CE0003197F1F765CE8F2D8F7171CFF0E1EF162F
:102CF000FFE5FF0609F4EDCB21E1E2162FE5F20630
:102D000009F4F1CB93EFE9169CE5F90609F454CCEC
:102D100008F0EBCBF8EDEF16FCE5FF0609F448CC24
:102D200029EDE2162CE5F20609F452CC37EDE31654
:102D30003CE5F30609F0EACB26E241EE61EEC8017C
:102D40000E94AE10CDCA30E1E3163FE5F30609F468
:102D5000C6CB91E1E9169FE5F906A1F682E0C0CB6A
:102D600085E0DE01119601900D928A95E1F7F80158
:102D7000228189819A8121118ECA0E945904F82EDC
:102D800092CAF6E1EF16FCE5FF0681F580919D0100
:102D900081112BCD89E20E94FA0322CD2AE5E216A9
:102DA0002DE5F20609F430CD68F4E1148CE5F8065F
:102DB00009F41DCD9EEDE9169CE5F906B9F40E94D3
:102DC0001B0A8ECAEBE5EE16EDE5FE0609F41ECDF4
:102DD000FCE5EF16FDE5FF0649F48091F40182FB66
:102DE000882780F991E089270E945609F80182819D
:102DF000E080F180882309F40BCDC7010E9495087B
:102E0000D82E682FC7010E948004B7018D2D0E9423
:102E10000B077C01882EF801D280A580A2943FE0A8
:102E2000A3228091E6018770A1F0CD2CDD2091F0E6
:102E30008F2D807F803421F080E28E0D883048F025
:102E400082E00E941A0C8091E6018770CC24C39422
:102E50008111C12C3F2C32942FE03222FBE0F3157C
:102E600008F412CDE32DF0E0E556FE4D0C941E2142
:102E70001F93CF93DF938091A401807FA9F4809169
:102E8000A101882389F08091D601D091A50160919C
:102E90009F017091A001A091A201B091A301C62F42
:102EA000C72316E0D81304C0DF91CF911F91089576
:102EB00090E0109711F0CF3F19F401968770F2CF90
:102EC000189F9001199F300D1124F901EA55FE4F0A
:102ED00041814713F2CF40814613EFCF4281411128
:102EE000ECCF438154814A1B5B0B483C510528F7CA
:102EF0008091A4018F7080618093A401F901E55550
:102F0000FE4F80818F70806180838FE991E00E9405
:102F10001211DF91CF911F910C94AC04AF92BF922C
:102F2000CF92DF92EF92FF920F931F93CF93DF9395
:102F3000CDB7DEB761970FB6F894DEBF0FBECDBF39
:102F40008C0185E0F801DE011D9601900D928A95B5
:102F5000E1F7F80180819181E2802FE9A22E21E042
:102F6000B22E6091A2017091A3016115710509F45F
:102F70003EC130919F014091A001232F24232F3F78
:102F800009F435C1C380D480F090A101F601E61B9D
:102F9000F70BFF2009F4FBC02091A401522F507FB2
:102FA000E83CF10508F0BBC0511178C0FE2C491374
:102FB00021C038131FC0E1101DC02F702061209365
:102FC000A401C5010E9412118091A401F80185831A
:102FD0008F2D61960FB6F894DEBF0FBECDBFDF9187
:102FE000CF911F910F91FF90EF90DF90CF90BF9006
:102FF000AF900895CD2829F0282F29232F3F09F0DD
:1030000014C120E0F22FF170DF2E20FF3DC020918F
:10301000D6014091A50156E0241315C08D879E87E7
:103020008D859E850E94D708292F22952F702230EA
:10303000F8F0243020F59F70F9F0F8019581907F29
:10304000D9F4D12C1FC030E0529FF001539FF00DF6
:103050001124EA55FE4F6181961306C060818613E4
:1030600003C06281E61210C02F5F3F4F2770D4CF9C
:103070009F7011F0882329F3805E883010F3C80117
:103080000E941211FD2CA4CFEE2009F4A1CF809153
:10309000A40181608093A401F12C9ACF491312C03E
:1030A000381310C0E1100EC0F8012583C8010E943A
:1030B000121186E0F801AFE9B1E001900D928A9516
:1030C000E1F786CF8D879E878D859E850E94E108DA
:1030D000882309F1EE20F9F08091A401803270F08C
:1030E00020919F013091A00138872F831986DB86BC
:1030F000CA868C87CE0107960E94121186E0F801DD
:10310000AFE9B1E001900D928A95E1F70E9438177E
:10311000FF24F3945DCFC8010E941211F9CF511121
:103120000AC08FE991E00E94121186E0F501119228
:103130008A95E9F7B1CF49130FC038130DC0E110DC
:103140000BC0F8012583C8010E94121186E0F50129
:1031500011928A95E9F73CCF8D879E878D859E8554
:103160000E94E1088823B9F2EE20A9F28091A4011F
:10317000803220F220919F013091A0013A8329836F
:103180001B82DD82CC828E83CE010196B5CFE83CD6
:10319000F105E0F6FE2CEE2009F4BDCF491316C070
:1031A000381314C08091A40180FD83CF982F907FA5
:1031B00009F47FCFF8018583903F09F477CF982FEA
:1031C000907F905F8F70892B858370CF8D879E87CE
:1031D0008D859E850E94E108811190CF8091A40188
:1031E00081608093A401C8010E941211F1CEEE20EB
:1031F00009F491CF8D879E878D859E850E94E10879
:10320000F82E882309F487CF86E0F801AFE9B1E012
:1032100001900D928A95E1F780919F019091A00114
:103220000E94D7080E943817D3CE21E02E25EACE7F
:103230001F93CF93DF93CDB7DEB767970FB6F894A0
:10324000DEBF0FBECDBF342F4B8B252F5C8B6D8B1C
:103250007E8B8F8B8E899F8961111092E8011A8A6B
:10326000198A3D872E876F87998B888B86E0FE01B0
:103270003D96DE01179601900D928A95E1F7CE01F9
:1032800007960E948E17882389F016E08091D60158
:103290009091A501891349C067960FB6F894DEBFD7
:1032A0000FBECDBFDF91CF911F91089586E0FE0143
:1032B0003796DE01119601900D928A95E1F78A8585
:1032C0009B85892B11F38F81988589238F3FE9F2A4
:1032D0002091A50130E0C90101968770992740919E
:1032E000D6014817190671F40E94610C1092A501CD
:1032F0001092D60186E0EFE9F1E0DF011D928A9598
:10330000E9F7C3CF96E0929FD001939FB00D1124AF
:10331000AA55BE4FFE01319601900D929A95E1F7A4
:103320008093A5010E94AC04B0CF819FC0011124FD
:103330008A559E4F0E948E17882309F4ADCF809145
:10334000D60190E00196877099278093D6019ECF91
:10335000CF92DF92EF92FF920F931F93CF93DF9361
:10336000C3E4D1E085EFE82E81E0F82ED12C01E016
:1033700010E08991F894E82FE295EF70F0E021A138
:103380008F70A80102C0440F551F8A95E2F7CA0149
:10339000922F982B91A392A18095892382A3789450
:1033A00000C0E8E4F1E030E020E0C12C4191A42F1E
:1033B000A295AF70B0E090968C9190E04F7002C0F3
:1033C000959587954A95E2F780FD4DC0802F022E96
:1033D00001C0880F0A94EAF7C82A2F5F3F4F2430B4
:1033E000310521F7FE01319780810E94180650EACD
:1033F0005A95F1F7F7018081C816B9F1C08281E0D2
:10340000D82AFFEFEF1AFF0A41E0C834D40709F0C9
:10341000B0CFDD2061F181E0809398010E94810BA3
:1034200090939701809396018091960190919701D6
:103430000E9494030697F8F08091F50180933E0472
:103440008091F60180933F048091F70180934004BE
:103450008091F801809341048091F90180934204A6
:103460001092980108C080E0B7CF80E0C9CF80916A
:1034700098018111D9CF8D2DDF91CF911F910F919F
:10348000FF90EF90DF90CF900895CDB7DEB7AD9766
:103490000FB6F894DEBF0FBECDBF84B7877F84BF61
:1034A0000FB6F894A89580916000886180936000C1
:1034B000109260000FBE80E890E00FB6F894809301
:1034C0006100909361000FBE85B7806885BF85B7A6
:1034D000806885BF8EE793E09093750180937401B7
:1034E0000E94F4010E94BF028091E20084608093F8
:1034F000E2007894809168048823A1F01091E9009B
:103500001F709091EC00892F817090FD80E8182B3E
:103510001092E9008091E80083FD0E94760C1F70F4
:103520001093E90082E084BD93E095BD9AEF97BDCA
:1035300080936E0084EF0E94180685EF0E941806A3
:1035400086EF0E94180687EF0E94180681E30E940A
:10355000180684E90E94180683E30E94180682E395
:103560000E94180686E30E9418061092F501109238
:103570003E041092F60110923F041092F70110924F
:1035800040041092F801109241041092F901109237
:10359000420490E080E00E9447218A3E9E4F11F055
:1035A0000E941B0A82E090E00E943F218093380431
:1035B0000E94CA069093F4018093F3010E94A81917
:1035C0008FE39CE90197F1F700C000000E94A81961
:1035D0008091410480FF17C06FEF83E290E00E946A
:1035E0004D216FEF84E290E00E944D216FEF85E264
:1035F00090E00E944D216FEF7FEF90E080E00E940D
:103600006B210E94830383E090E00E943F21682F9A
:1036100070E090E080E00E94570C83E290E00E940E
:103620003F21813209F0BAC484E290E00E943F2138
:10363000873009F0B3C485E290E00E943F218231D7
:1036400009F0ACC41092210480E8809300020E942B
:1036500021206DE070E081EB92E00E947206892BE0
:10366000C9F58091210463E070E081FD04C28EEA17
:1036700092E00E947206892B69F56DE070E08EE998
:1036800092E00E947206892B29F50E94A303605ADA
:1036900075418F4F9F4F609325047093260480934C
:1036A000270490932804E1E2F2E080E092E0DF0159
:1036B0009C011D9221503040E1F78FEF9FEF9093D6
:1036C00024048093230481E080932A0480932904B6
:1036D000109222046E98769A24982C9A8CB186FBCC
:1036E000882780F91C99CAC190E0892B8093FF013B
:1036F00087E091E09093FB018093FA018EE394E0E0
:1037000035E0380F3BA780916804F0E4FF2E00E11C
:1037100012E1853009F4E9C10E94A819E82E81114F
:103720000E94A303AEE3B4E0E9E3F4E010E000E0BC
:10373000302F8D919191981709F4E6C1292F2827F0
:1037400090E0FF24F394422F4F2109F4D8C199A3AC
:103750003AA38F2191E009F490E09BA30E94810B92
:103760008160782F9DA38CA349A15AA16BA18DA143
:103770000E941819F801E75CFB4F8081F826F0825F
:10378000E091FF01EE0FEE0FE093FF018CB186FB9D
:10379000662460F81C99CFC180E08629E82BE0936D
:1037A000FF01EF70F0E0E45BFE4F80819091FE013D
:1037B000890F8093FE01F12C843054F08091FD013B
:1037C0008F5F8093FD018AEA0E949310FF24F39497
:1037D0008091FE018D3F54F48091FD0181508093D2
:1037E000FD0189EA0E949310FF24F3948091FE0169
:1037F000082E000C990B64E070E00E940A2180936F
:10380000FE01F1100E94A30380912A04882399F1FC
:1038100020912304309124042115310539F0809141
:10382000220461E070E0882309F489C180912904B1
:10383000882309F10E94A303009125041091260416
:103840002091270430912804601B710B820B930B8D
:103850006F3F7F4F8F4F9F4770F480912A048823DA
:1038600051F062E070E08EEB92E00E947206892BCC
:1038700011F410922904E11001C0F1100E94A20677
:1038800086E0E1E3F4E0DE01119601900D928A9565
:10389000E1F7F0903304E090340410913504009186
:1038A00036041092330410923404109235041092AE
:1038B00036048F2D8E2909F448C080912F049091F1
:1038C00030040E9494039C0190912E04992309F4E2
:1038D0008CC323333105C8F19F3F19F09F5F90934C
:1038E0002E04FF2059F00E949E059FEF1F140CF438
:1038F00091E0899F802D112480933304EE2059F0AC
:103900000E949E059FEF1E140CF491E0899F802D6C
:10391000112480933404309133043323B1F0209187
:103920003404222391F045EB3403C0011124992380
:1039300009F4CEC19093330445EB24039001112484
:10394000332309F4C9C130933404812F802B09F447
:1039500048C080912C0490912D040E9494039C01F6
:1039600090912B04992309F43BC325363105C8F106
:103970009F3F19F09F5F90932B04112359F00E94F1
:103980007C059FEF11160CF491E0899F802D112486
:1039900080933504002359F00E947C059FEF101698
:1039A0000CF491E0899F802D11248093360430918E
:1039B00035043323B1F020913604222391F045EBF6
:1039C0003403C0011124992309F48AC1909335046A
:1039D00045EB240390011124332309F485C130936E
:1039E00036048091330490913404892B90913504EE
:1039F000892B90913604892B11F00E948D0B86E063
:103A0000FE013196A1E3B4E001900D928A95E1F7B1
:103A10000E94F70490913704891721F00E94F7045F
:103A20008093370480916804843009F06CCE83E081
:103A30008093E9008091E80082FF65CE8091E800E4
:103A400090E085FF06C00E941302882309F450C14C
:103A500091E08091E8008B778093E800992309F446
:103A600052CEE981E150E33108F0B8C1F0E0E95508
:103A7000FE4D0C941E218BEA92E0FBCD92E035CEF8
:103A800080916804843019F11092FC0188E190E083
:103A90000FB6F894A895809360000FBEF092600076
:103AA00083B7817F846083BF83B7816083BF78944D
:103AB000889583B78E7F83BF0FB6F894A8958091C1
:103AC0006000886180936000109260000FBE80915A
:103AD0006704882351F00E94A819EEE3F4E0819175
:103AE000811146C29BA59E13FACF80916804853050
:103AF00009F4C6CF0E94610C0E94F7040DCE9F5FAF
:103B0000FF0C943009F01FCE0F5F1F4F05301105D9
:103B100009F00ECE8FEF8EA38FA318A60E94810B03
:103B20008160782F9AA789A74EA15FA168A58AA571
:103B30000E94181925CE82E090E02FCE8F5F082FCB
:103B400010E02B01082E02C0440C551C0A94E2F729
:103B5000A90144215521452B89F39091210490FD21
:103B600044C08295880F8076809302019801369533
:103B700027953695279520930501815E8093030153
:103B80001092060124E630E047E050E060E071E08A
:103B900088E70E94B220892B09F048CEA80175E081
:103BA000440F551F7A95E1F78091210480FD2BC0C9
:103BB0004F5D5D4F04E610E020E230E060E488E70E
:103BC0000E94D920892B09F031CE0E94A206C201A1
:103BD00080959095409023045090240448225922C7
:103BE000509224044092230421CE880F880F880F1E
:103BF0008093020110920501895F8093030183E0A5
:103C000080930601BFCFE1E0F2E080E2DF011D9288
:103C10008A95E9F7E0E6F1E0FDA7ECA70CE511E0F5
:103C200099249394ACA5BDA52D91BDA7ACA7F8018F
:103C300021908F01240E352E311CC1018F5D9D4FC7
:103C40001C01E22FF0E0EF5FFD4F30E020E067E085
:103C5000A62EA21AB92C022E01C0BB0C0A94EAF7B8
:103C6000610190E0D6018D916D018B216A2D691B58
:103C70006770862E062E000C770BB82F01C0BB0F85
:103C80008A94EAF78B2E7195619571096770772791
:103C900001C086956A95EAF7882A8081882A808201
:103CA0009F5F9830F9F62F5F3F4F319628303105EE
:103CB00071F6E4E6F1E02CA53DA5E217F30709F063
:103CC000B1CF04E610E020E230E041E052E076CFF0
:103CD00081E08093330430CE81E08093340435CE8C
:103CE00081E08093350474CE81E08093360479CEF0
:103CF00000E210E0CE0101967C018091E80085FD94
:103D00000AC08091E8008B778093E8000E9413023C
:103D1000882399F39DCE8091F100D7018D937D0189
:103D20000150110951F794CE1A8289E08B8321C08A
:103D30008A81823009F44BC1833061F0813009F00F
:103D40004DC00E94A3030E9424216B837C838D833A
:103D50009E830FC080913E048B8380913F048C83AF
:103D6000809140048D83809141048E838091420430
:103D70008F8380916804843009F0C5CC1091E900EC
:103D80001F709091EC00892F817090FD80E8182BB6
:103D900082E08093E9008091E80080FF0DC050E050
:103DA00040E060E270E0CE0101960E944402809102
:103DB000E8008E778093E8001F701093E900A3CC91
:103DC0008A81823059F46B817C818D819E810E9431
:103DD000242186E290E00E944D21CBCF8FEF898392
:103DE000C8CF4C816B818A810E94D8069827892789
:103DF00098279E838D83BDCFED80FE80FE24EF2427
:103E0000FE248A810B81B8E00B9F80011124E8E237
:103E10008E9F000D111D11248C8190E0880F991F39
:103E2000080F191F6F2DC80187960E944D216E2D16
:103E3000C8018896D0CF0E9405099BCF80E18A8374
:103E400098CF83E08A8389E371CF0A811B81102791
:103E5000012710279E012F5F3F4F6901EC80C901A8
:103E60008E0D911D7C01C80189539F4FEC14FD04F8
:103E700009F47FCF0933A3E01A0750F40E943F21D1
:103E8000F60184830F5F1F4FBFEFCB1ADB0AEBCF26
:103E9000D60114961C92F6CF0A811B8110270127A8
:103EA0001027FE0131966F01EC80E00EF12EF11C1F
:103EB000C80189539F4FE016F10609F45ACF093320
:103EC000F3E01F0728F4D60114966C910E944D214F
:103ED000BFEFCB1ADB0A0F5F1F4FEACF0E947009BA
:103EE00048CF84E0ACCF0A811B811027012710271F
:103EF000FE0131966F01EC809F012E0D311D79017D
:103F0000C8018796CE14DF0409F433CF003A1105B7
:103F100058F40E943F21D60114968C930F5F1F4FD7
:103F2000FFEFCF1ADF0AECCFF6011482F7CF0A8138
:103F30001B811027012710279E012F5F3F4F69012A
:103F4000EC80E00EF12EF11CC8018796E016F10618
:103F500009F40FCF003A110528F4D60114966C919C
:103F60000E944D21BFEFCB1ADB0A0F5F1F4FECCF32
:103F700009BD19BD09B400FEFDCF8091D8008F7D29
:103F80008093D8008091E00082608093E00080916F
:103F9000E00081FDFCCF0E94610CA7CD60E086E2CD
:103FA00090E00E944D210E9405090E94700961E283
:103FB00083E290E00E944D2167E084E290E00E945D
:103FC0004D2162E185E290E00E944D213BCB86E2EB
:103FD00090E00E943F211B821C821D828E83C9CEED
:103FE0002D32314008F0C6CCFCCC2D32314008F0E7
:103FF00075CCABCC1F921FB61F9211248F939F9349
:10400000AF93BF938091FC01811113C08091EF01A8
:104010009091F001A091F101B091F2014196A11DA2
:10402000B11D8093EF019093F001A093F101B09343
:10403000F201BF91AF919F918F911F901FBE1F9072
:1040400018951092B9008CE08093B8000895EF9213
:10405000FF920F931F93CF93DF93182FEB011092D2
:10406000BC0084EA8093BC000E94810B7C0180919B
:10407000BC0087FF27C08091B900887F883029F075
:104080008091B900887F8031D9F51093BB0084E816
:104090008093BC000E94810B8C018091BC0087FF43
:1040A00024C02091B900287F90E080E02831B1F051
:1040B00081E090E0203411F490E080E091958195CA
:1040C00091090CC0CF3FDC0791F20E94810B8E1941
:1040D0009F098C179D0758F28EEF9FEFDF91CF91CC
:1040E0001F910F91FF90EF900895CF3FDC07A9F249
:1040F0000E94810B801B910B8C179D0770F2ECCFF7
:104100008FEF9FEFEBCF0F931F93CF93DF93EB01D5
:104110008093BB0084E88093BC000E94810B8C01DB
:104120008091BC0087FF11C02091B900287F81E0F9
:1041300090E0283211F490E080E09195819591090A
:10414000DF91CF911F910F910895CF3FDC0741F38D
:104150000E94810B801B910B8C179D0708F38EEF3B
:104160009FEFEECFCF92DF92EF92FF920F931F93CC
:10417000CF93DF936B018A017901B9010E94272057
:10418000E6010C0D1D1DC017D10761F424E9209331
:10419000BC00DF91CF911F910F91FF90EF90DF90C6
:1041A000CF90089597FDF2CFB70189910E948320A7
:1041B000EACFCF92DF92EF92FF920F931F93CF93AC
:1041C000DF93C62F6A017901B8010E94272097FD6D
:1041D0000CC0B8018C2F0E948320E601EC0CFD1C62
:1041E000CE15DF0511F097FF0CC024E92093BC0029
:1041F000DF91CF911F910F91FF90EF90DF90CF90C3
:104200000895B80189910E948320EACF84E98093C0
:10421000BC00089597FB072E16F4009407D077FD95
:1042200009D00E942B2107FC05D03EF49095819582
:104230009F4F0895709561957F4F0895EE0FFF1F72
:104240000590F491E02D099469279627692778272E
:10425000872778270895AA1BBB1B51E107C0AA1F17
:10426000BB1FA617B70710F0A61BB70B881F991F17
:104270005A95A9F780959095BC01CD010895F999BB
:10428000FECF92BD81BDF89A992780B50895A8E127
:10429000B0E042E050E00C947321262FF999FECF54
:1042A00092BD81BDF89A019700B4021639F01FBA89
:1042B00020BD0FB6F894FA9AF99A0FBE08950396A6
:1042C000272F0E944E210E944D21252F0E944E2112
:1042D000242F0C944E210196272F0E944E210C94DE
:1042E0004D21DC01CB01FC01F999FECF06C0F2BDE6
:1042F000E1BDF89A319600B40D9241505040B8F7A4
:104300000895F894FFCFF008F008F908F908FB08C1
:10431000F908F908F908F008F0080009F908F9089F
:1043200000095B0D830DD60D830DD60DB60DEE0D78
:10433000D60DEB0EF80E0D140D1480148014DE143F
:10434000F814441444140315D915EA15EA15941EFB
:10435000981EE01EF11EFC1E1B1FEE1EEE1EEE1E22
:10436000EE1EEE1E1E1F211F251F4C1F6E1F711FEC
:04437000731F971F01
:104374000021007F2200038003DB09BA09B609B2D9
:104384000901818283E200E900EA00B500B600B7C2
:1043940000CD008301CC008A019201940121022303
:1043A4000224022502260227022A02B300B4006F67
:1043B400007000F4F5F6F7319433323600FF010053
:1043C400010000FFFF0000010001FF0000081018B9
:1043D400181008004022B684016201AC00D202EB3E
:0443E400020B0300C5
:00000001FF
